{
  "transactions": [
    {
      "hash": "0xfd2891ab451d4375ed51f158a54c842054435c83db5b960ee88a65e7be77cbf3",
      "transactionType": "CREATE",
      "contractName": "CrossSwapsResolver",
      "contractAddress": "0x57127879803e313659c1e0df410ec73ddf5a11f7",
      "function": null,
      "arguments": [
        "0x111111125421cA6dc452d289314280a0f8842A65",
        "0xEAde2298C7d1b5C748103da66D6Dd9Cf204E2AD2"
      ],
      "transaction": {
        "from": "0xeade2298c7d1b5c748103da66d6dd9cf204e2ad2",
        "value": "0x0",
        "input": "0x60a0346100d857601f6109bc38819003918201601f19168301916001600160401b038311848410176100dc5780849260409485528339810103126100d85780516001600160a01b039182821682036100d857602001518281168091036100d85780156100c0575f80546001600160a01b03198116831782556040519416907f8be0079c531659141344cd1fd0a4f28419497f9722a3daafe3b4186f6b6457e09080a36080526108cb90816100f182396080518181816101cb01526104810152f35b604051631e4fbdf760e01b81525f6004820152602490fd5b5f80fd5b634e487b7160e01b5f52604160045260245ffdfe6040608081526004908136101561001f575b5050361561001d575f80fd5b005b5f3560e01c80630e5ef56e1461068157806315431c48146102af5780631f3177ba14610534578063287615a0146103765780635221c1f01461034a578063548d496f1461034a578063715018a6146102f357806375979f79146102af5780637a9a0025146102215780638da5cb5b146101fa578063a71e2d95146101b7578063ec93dee3146101445763f2fde38b036100115734610140576020366003190112610140576001600160a01b03823581811693919290849003610140576100e361086a565b831561012a5750505f54826bffffffffffffffffffffffff60a01b8216175f55167f8be0079c531659141344cd1fd0a4f28419497f9722a3daafe3b4186f6b6457e05f80a3005b905f6024925191631e4fbdf760e01b8352820152fd5b5f80fd5b5090346101405781600319360112610140573590602435801515808203610140577fe78910fc1a08062969a9edf6b274d453a04a1734507fabbd5bb445d5cb8eaeae926101b060209361019561086a565b865f5260018552825f209060ff801983541691151516179055565b51908152a2005b5034610140575f36600319011261014057517f00000000000000000000000000000000000000000000000000000000000000006001600160a01b03168152602090f35b5034610140575f366003190112610140575f5490516001600160a01b039091168152602090f35b509034610140576060366003190112610140573561023d6107d9565b91604435801515808203610140577fea0e9a77bf27965d433bacf0d59e154632b791d02e56a3ab70e4803466748d87926102a860209361027b61086a565b865f5260028552825f209760018060a01b031697885f528552825f209060ff801983541691151516179055565b51908152a3005b50346101405780600319360112610140576020916102cb6107d9565b90355f5260028352815f209060018060a01b03165f52825260ff815f20541690519015158152f35b34610140575f3660031901126101405761030b61086a565b5f80546001600160a01b0319811682556001600160a01b03167f8be0079c531659141344cd1fd0a4f28419497f9722a3daafe3b4186f6b6457e08280a3005b503461014057602036600319011261014057602091355f526001825260ff815f20541690519015158152f35b506101a03660031901818112610140576101001361014057610104926101249061014491610164936101849283359167ffffffffffffffff9081841161014057366023850112156101405783830135918211610140573660248386010111610140576060956103e361086a565b60018060a01b03988a51988997889663f497df7560e01b88528035908801526024359d8e602489015260443560448901526064356064890152608435608489015260a43560a489015260c43560c489015260e43560e4890152803590880152803590870152803590860152803590850152830152806101a48301528060246101c49401848401375f838284010152601f801991011681010301815f867f0000000000000000000000000000000000000000000000000000000000000000165af1801561052a576104ff575b507f712af125a0e4f92587048303010a806382fe81cc25b8c9bee343d94638e91d9160c05f928385519560018752600160208801528601528360608601528360808601528360a086015233951693a4005b606090813d8311610523575b6105158183610834565b81010312610140575f6104ae565b503d61050b565b83513d5f823e3d90fd5b50903461014057816003193601126101405767ffffffffffffffff9080358281116101405761056690369083016107a8565b9290602480358381116101405761058090369086016107a8565b9261058961086a565b83870361066e575f5b87811061059b57005b6105ae6105a9828a856107ef565b610820565b8582101561065c578160051b840135601e198536030181121561014057840190813590888211610140576020809301908236038213610140578c515f9384938491839181908337810182815203925af1903d15610656573d90888211610644575f908c519261062682601f19601f8401160185610834565b83523d92013e5b1561063a57600101610592565b88513d5f823e3d90fd5b8660418b634e487b7160e01b5f52525ffd5b5061062d565b84603289634e487b7160e01b5f52525ffd5b87516001621398b960e31b031981528690fd5b50346101405760603660031901126101405767ffffffffffffffff908235602435838111610140576106b690369086016107a8565b93604435908111610140576106ce90369087016107a8565b9190956106d961086a565b82860361079757505f5b8581106106ec57005b8087857fea0e9a77bf27965d433bacf0d59e154632b791d02e56a3ab70e4803466748d878589610786610735878b8f6105a9836107809261073a60019f610735908f88906107ef565b610813565b998c5f5261077b60209b8c9b60028d52805f2060018060a01b039d8e6107646105a98a8a8a6107ef565b165f52525f209060ff801983541691151516179055565b6107ef565b986107ef565b948b5195151586521693a3016106e3565b84516001621398b960e31b03198152fd5b9181601f840112156101405782359167ffffffffffffffff8311610140576020808501948460051b01011161014057565b602435906001600160a01b038216820361014057565b91908110156107ff5760051b0190565b634e487b7160e01b5f52603260045260245ffd5b3580151581036101405790565b356001600160a01b03811681036101405790565b90601f8019910116810190811067ffffffffffffffff82111761085657604052565b634e487b7160e01b5f52604160045260245ffd5b5f546001600160a01b0316330361087d57565b60405163118cdaa760e01b8152336004820152602490fdfea2646970667358221220f9aab16165b30080eac57e9e9409629574d1f278df71c4ec5354e4dcb859126164736f6c63430008170033000000000000000000000000111111125421ca6dc452d289314280a0f8842a65000000000000000000000000eade2298c7d1b5c748103da66d6dd9cf204e2ad2",
        "nonce": "0xd0",
        "chainId": "0xaa36a7"
      },
      "additionalContracts": [],
      "isFixedGasLimit": false
    },
    {
      "hash": "0xeb7ae10f4e5f4b4489743b24622f964e58b77bcd80a4b44fea416ef693f05261",
      "transactionType": "CALL",
      "contractName": "CrossSwapsResolver",
      "contractAddress": "0x57127879803e313659c1e0df410ec73ddf5a11f7",
      "function": "setChainSupport(uint256,bool)",
      "arguments": [
        "11155111",
        "true"
      ],
      "transaction": {
        "from": "0xeade2298c7d1b5c748103da66d6dd9cf204e2ad2",
        "to": "0x57127879803e313659c1e0df410ec73ddf5a11f7",
        "value": "0x0",
        "input": "0xec93dee30000000000000000000000000000000000000000000000000000000000aa36a70000000000000000000000000000000000000000000000000000000000000001",
        "nonce": "0xd1",
        "chainId": "0xaa36a7"
      },
      "additionalContracts": [],
      "isFixedGasLimit": false
    },
    {
      "hash": "0xee3081f7972dfe53f0e943b67d13817a4a83df4c58b5b47bb1340f085ccb0267",
      "transactionType": "CALL",
      "contractName": "CrossSwapsResolver",
      "contractAddress": "0x57127879803e313659c1e0df410ec73ddf5a11f7",
      "function": "setChainSupport(uint256,bool)",
      "arguments": [
        "1",
        "true"
      ],
      "transaction": {
        "from": "0xeade2298c7d1b5c748103da66d6dd9cf204e2ad2",
        "to": "0x57127879803e313659c1e0df410ec73ddf5a11f7",
        "value": "0x0",
        "input": "0xec93dee300000000000000000000000000000000000000000000000000000000000000010000000000000000000000000000000000000000000000000000000000000001",
        "nonce": "0xd2",
        "chainId": "0xaa36a7"
      },
      "additionalContracts": [],
      "isFixedGasLimit": false
    },
    {
      "hash": "0xf24eab61b8299ebb265bb9c56b79121783a971801ad60cec9f355b5fbf415d13",
      "transactionType": "CALL",
      "contractName": "CrossSwapsResolver",
      "contractAddress": "0x57127879803e313659c1e0df410ec73ddf5a11f7",
      "function": "setChainSupport(uint256,bool)",
      "arguments": [
        "42161",
        "true"
      ],
      "transaction": {
        "from": "0xeade2298c7d1b5c748103da66d6dd9cf204e2ad2",
        "to": "0x57127879803e313659c1e0df410ec73ddf5a11f7",
        "value": "0x0",
        "input": "0xec93dee3000000000000000000000000000000000000000000000000000000000000a4b10000000000000000000000000000000000000000000000000000000000000001",
        "nonce": "0xd3",
        "chainId": "0xaa36a7"
      },
      "additionalContracts": [],
      "isFixedGasLimit": false
    },
    {
      "hash": "0xb7b336880bf024a7c5a0e7e38059147b0a7d5b8ae8ae012fd15b6036f3f70e0d",
      "transactionType": "CALL",
      "contractName": "CrossSwapsResolver",
      "contractAddress": "0x57127879803e313659c1e0df410ec73ddf5a11f7",
      "function": "setChainSupport(uint256,bool)",
      "arguments": [
        "8453",
        "true"
      ],
      "transaction": {
        "from": "0xeade2298c7d1b5c748103da66d6dd9cf204e2ad2",
        "to": "0x57127879803e313659c1e0df410ec73ddf5a11f7",
        "value": "0x0",
        "input": "0xec93dee300000000000000000000000000000000000000000000000000000000000021050000000000000000000000000000000000000000000000000000000000000001",
        "nonce": "0xd4",
        "chainId": "0xaa36a7"
      },
      "additionalContracts": [],
      "isFixedGasLimit": false
    },
    {
      "hash": "0x674e46d093d3b7f2c616156783a045458558b2b18adb2115ef2a53bffdda2728",
      "transactionType": "CALL",
      "contractName": "CrossSwapsResolver",
      "contractAddress": "0x57127879803e313659c1e0df410ec73ddf5a11f7",
      "function": "setChainSupport(uint256,bool)",
      "arguments": [
        "137",
        "true"
      ],
      "transaction": {
        "from": "0xeade2298c7d1b5c748103da66d6dd9cf204e2ad2",
        "to": "0x57127879803e313659c1e0df410ec73ddf5a11f7",
        "value": "0x0",
        "input": "0xec93dee300000000000000000000000000000000000000000000000000000000000000890000000000000000000000000000000000000000000000000000000000000001",
        "nonce": "0xd5",
        "chainId": "0xaa36a7"
      },
      "additionalContracts": [],
      "isFixedGasLimit": false
    },
    {
      "hash": "0xe377cc7822d9ea9df81861e8b427d8c3f3b6559c9978e370b820e943388253bc",
      "transactionType": "CALL",
      "contractName": "CrossSwapsResolver",
      "contractAddress": "0x57127879803e313659c1e0df410ec73ddf5a11f7",
      "function": "setChainSupport(uint256,bool)",
      "arguments": [
        "56",
        "true"
      ],
      "transaction": {
        "from": "0xeade2298c7d1b5c748103da66d6dd9cf204e2ad2",
        "to": "0x57127879803e313659c1e0df410ec73ddf5a11f7",
        "value": "0x0",
        "input": "0xec93dee300000000000000000000000000000000000000000000000000000000000000380000000000000000000000000000000000000000000000000000000000000001",
        "nonce": "0xd6",
        "chainId": "0xaa36a7"
      },
      "additionalContracts": [],
      "isFixedGasLimit": false
    },
    {
      "hash": "0xe65e30403df3163f8bff0c3608f4cb3e103e4b57ee8149af2f98b6e32317a9e5",
      "transactionType": "CALL",
      "contractName": "CrossSwapsResolver",
      "contractAddress": "0x57127879803e313659c1e0df410ec73ddf5a11f7",
      "function": "setChainSupport(uint256,bool)",
      "arguments": [
        "10",
        "true"
      ],
      "transaction": {
        "from": "0xeade2298c7d1b5c748103da66d6dd9cf204e2ad2",
        "to": "0x57127879803e313659c1e0df410ec73ddf5a11f7",
        "value": "0x0",
        "input": "0xec93dee3000000000000000000000000000000000000000000000000000000000000000a0000000000000000000000000000000000000000000000000000000000000001",
        "nonce": "0xd7",
        "chainId": "0xaa36a7"
      },
      "additionalContracts": [],
      "isFixedGasLimit": false
    },
    {
      "hash": "0xb08e1584d5e90e8d117fc10c043ebe6420cbe19fdd9360dd1d81ef9edcf3267a",
      "transactionType": "CALL",
      "contractName": "CrossSwapsResolver",
      "contractAddress": "0x57127879803e313659c1e0df410ec73ddf5a11f7",
      "function": "batchSetTokenSupport(uint256,address[],bool[])",
      "arguments": [
        "11155111",
        "[0x1c7D4B196Cb0C7B01d743Fbc6116a902379C7238, 0xaA8E23Fb1079EA71e0a56F48a2aA51851D8433D0, 0x7b79995e5f793A07Bc00c21412e50Ecae098E7f9]",
        "[true, true, true]"
      ],
      "transaction": {
        "from": "0xeade2298c7d1b5c748103da66d6dd9cf204e2ad2",
        "to": "0x57127879803e313659c1e0df410ec73ddf5a11f7",
        "value": "0x0",
        "input": "0x0e5ef56e0000000000000000000000000000000000000000000000000000000000aa36a7000000000000000000000000000000000000000000000000000000000000006000000000000000000000000000000000000000000000000000000000000000e000000000000000000000000000000000000000000000000000000000000000030000000000000000000000001c7d4b196cb0c7b01d743fbc6116a902379c7238000000000000000000000000aa8e23fb1079ea71e0a56f48a2aa51851d8433d00000000000000000000000007b79995e5f793a07bc00c21412e50ecae098e7f90000000000000000000000000000000000000000000000000000000000000003000000000000000000000000000000000000000000000000000000000000000100000000000000000000000000000000000000000000000000000000000000010000000000000000000000000000000000000000000000000000000000000001",
        "nonce": "0xd8",
        "chainId": "0xaa36a7"
      },
      "additionalContracts": [],
      "isFixedGasLimit": false
    }
  ],
  "receipts": [
    {
      "status": "0x1",
      "cumulativeGasUsed": "0x172d876",
      "logs": [
        {
          "address": "0x57127879803e313659c1e0df410ec73ddf5a11f7",
          "topics": [
            "0x8be0079c531659141344cd1fd0a4f28419497f9722a3daafe3b4186f6b6457e0",
            "0x0000000000000000000000000000000000000000000000000000000000000000",
            "0x000000000000000000000000eade2298c7d1b5c748103da66d6dd9cf204e2ad2"
          ],
          "data": "0x",
          "blockHash": "0xe65a61aa9d18d2d225a5d868a4f9c870238079e549492eda931051abe0331812",
          "blockNumber": "0x87aca6",
          "transactionHash": "0xfd2891ab451d4375ed51f158a54c842054435c83db5b960ee88a65e7be77cbf3",
          "transactionIndex": "0x8b",
          "logIndex": "0x173",
          "removed": false
        }
      ],
      "logsBloom": "0x00000000001000000000000000000000000000000000000000800000000000000000000000000000000000000000000000000000040000000000000000000000000020000000000000000000000000020001000000000000000000000000000000000000020000000000000000000800000000000000000000000000000000400000000000000000000000000000000000000000000000000000000000000000000000000000000000000000000000000000000000000000000000000000000000000000000000000000000000000000080000000800000000000000000020000000000000000000000000000000000000000000000000000000000000000000",
      "type": "0x2",
      "transactionHash": "0xfd2891ab451d4375ed51f158a54c842054435c83db5b960ee88a65e7be77cbf3",
      "transactionIndex": "0x8b",
      "blockHash": "0xe65a61aa9d18d2d225a5d868a4f9c870238079e549492eda931051abe0331812",
      "blockNumber": "0x87aca6",
      "gasUsed": "0x8a846",
      "effectiveGasPrice": "0x2753aa",
      "from": "0xeade2298c7d1b5c748103da66d6dd9cf204e2ad2",
      "to": null,
      "contractAddress": "0x57127879803e313659c1e0df410ec73ddf5a11f7"
    },
    {
      "status": "0x1",
      "cumulativeGasUsed": "0x1ac3705",
      "logs": [
        {
          "address": "0x57127879803e313659c1e0df410ec73ddf5a11f7",
          "topics": [
            "0xe78910fc1a08062969a9edf6b274d453a04a1734507fabbd5bb445d5cb8eaeae",
            "0x0000000000000000000000000000000000000000000000000000000000aa36a7"
          ],
          "data": "0x0000000000000000000000000000000000000000000000000000000000000001",
          "blockHash": "0x7fe9c3bbd17617a53034223db24a64ce2e7f5543293c843f6826783ec5514830",
          "blockNumber": "0x87aca7",
          "transactionHash": "0xeb7ae10f4e5f4b4489743b24622f964e58b77bcd80a4b44fea416ef693f05261",
          "transactionIndex": "0xc1",
          "logIndex": "0x1a9",
          "removed": false
        }
      ],
      "logsBloom": "0x00000000000000000000000000000000000000000080000000000000000000000000000000000000000000000000000002000000040000000000000000000000000020000000000000000000000000000000000000000000000000000000000000000000000000000000000000000000000000000000000000000000000000000000000000000000000000000040000000000000000000000000000000002000000000000000000000000000000000000000000000000000000000000200000000000000000000000000000000000000180000000000000000000000000000000000000000000000000000000000000000000000000000000000000000000000",
      "type": "0x2",
      "transactionHash": "0xeb7ae10f4e5f4b4489743b24622f964e58b77bcd80a4b44fea416ef693f05261",
      "transactionIndex": "0xc1",
      "blockHash": "0x7fe9c3bbd17617a53034223db24a64ce2e7f5543293c843f6826783ec5514830",
      "blockNumber": "0x87aca7",
      "gasUsed": "0xb9d6",
      "effectiveGasPrice": "0x275ad2",
      "from": "0xeade2298c7d1b5c748103da66d6dd9cf204e2ad2",
      "to": "0x57127879803e313659c1e0df410ec73ddf5a11f7",
      "contractAddress": null
    },
    {
      "status": "0x1",
      "cumulativeGasUsed": "0xabf941",
      "logs": [
        {
          "address": "0x57127879803e313659c1e0df410ec73ddf5a11f7",
          "topics": [
            "0xe78910fc1a08062969a9edf6b274d453a04a1734507fabbd5bb445d5cb8eaeae",
            "0x0000000000000000000000000000000000000000000000000000000000000001"
          ],
          "data": "0x0000000000000000000000000000000000000000000000000000000000000001",
          "blockHash": "0xce7611bf872684863759c41dc149f4e30f3e0b31aca5769abb66172398b6d139",
          "blockNumber": "0x87aca8",
          "transactionHash": "0xee3081f7972dfe53f0e943b67d13817a4a83df4c58b5b47bb1340f085ccb0267",
          "transactionIndex": "0x5c",
          "logIndex": "0xc9",
          "removed": false
        }
      ],
      "logsBloom": "0x00000000000000000000000000000000000000000080000000000000000000000000000000000000000000000000000000000000040000000000000000040000000020000000000000000000000000000000000000040000000000000000000000000000000000000000000000000000000000000000000000000000000000000000000000000000000000000040000000000000000000000000000000002000000000000000000000000000000000000000000000000000000000000000000000000000000000000000000000000000080000000000000000000000000040000000000000000000000000000000000000000000000000000000000000000000",
      "type": "0x2",
      "transactionHash": "0xee3081f7972dfe53f0e943b67d13817a4a83df4c58b5b47bb1340f085ccb0267",
      "transactionIndex": "0x5c",
      "blockHash": "0xce7611bf872684863759c41dc149f4e30f3e0b31aca5769abb66172398b6d139",
      "blockNumber": "0x87aca8",
      "gasUsed": "0xb9be",
      "effectiveGasPrice": "0x2a545e",
      "from": "0xeade2298c7d1b5c748103da66d6dd9cf204e2ad2",
      "to": "0x57127879803e313659c1e0df410ec73ddf5a11f7",
      "contractAddress": null
    },
    {
      "status": "0x1",
      "cumulativeGasUsed": "0xf9b846",
      "logs": [
        {
          "address": "0x57127879803e313659c1e0df410ec73ddf5a11f7",
          "topics": [
            "0xe78910fc1a08062969a9edf6b274d453a04a1734507fabbd5bb445d5cb8eaeae",
            "0x000000000000000000000000000000000000000000000000000000000000a4b1"
          ],
          "data": "0x0000000000000000000000000000000000000000000000000000000000000001",
          "blockHash": "0xd1db3017497bb534a49f8f59169def0d124620c84b34b13d970330158f780921",
          "blockNumber": "0x87aca9",
          "transactionHash": "0xf24eab61b8299ebb265bb9c56b79121783a971801ad60cec9f355b5fbf415d13",
          "transactionIndex": "0x81",
          "logIndex": "0x118",
          "removed": false
        }
      ],
      "logsBloom": "0x00000000000000000000000000000000000000000080000000000000000000000000000000000000000000000000000000000000040000000000000000000000000020000000000000000000000000000000000000000000000000000000000000000000000000000000000000000000000000000000000000000000000000000000000000000000000000000040000000000000000000000000000000002000000000000000000000000000000000000000000000000000000000000000000000000000000000010000000000000000080000000000004000000000000000000000000000000000000000000000100000000000000000000000000000000000",
      "type": "0x2",
      "transactionHash": "0xf24eab61b8299ebb265bb9c56b79121783a971801ad60cec9f355b5fbf415d13",
      "transactionIndex": "0x81",
      "blockHash": "0xd1db3017497bb534a49f8f59169def0d124620c84b34b13d970330158f780921",
      "blockNumber": "0x87aca9",
      "gasUsed": "0xb9ca",
      "effectiveGasPrice": "0x2940d0",
      "from": "0xeade2298c7d1b5c748103da66d6dd9cf204e2ad2",
      "to": "0x57127879803e313659c1e0df410ec73ddf5a11f7",
      "contractAddress": null
    },
    {
      "status": "0x1",
      "cumulativeGasUsed": "0x11a3112",
      "logs": [
        {
          "address": "0x57127879803e313659c1e0df410ec73ddf5a11f7",
          "topics": [
            "0xe78910fc1a08062969a9edf6b274d453a04a1734507fabbd5bb445d5cb8eaeae",
            "0x0000000000000000000000000000000000000000000000000000000000002105"
          ],
          "data": "0x0000000000000000000000000000000000000000000000000000000000000001",
          "blockHash": "0x260f669ff3a01fea39e4aff3c61ac5e087a7795a87ea0e179e9fc6ca33649931",
          "blockNumber": "0x87acaa",
          "transactionHash": "0xb7b336880bf024a7c5a0e7e38059147b0a7d5b8ae8ae012fd15b6036f3f70e0d",
          "transactionIndex": "0x75",
          "logIndex": "0xeb",
          "removed": false
        }
      ],
      "logsBloom": "0x00000000000000000000000000000000000000000080000000000000000000000000000000000000000000000000000000000000040000000001000000000000000020000000000000000000000000000000000000000000000000000000000000010000000000000000000000000000000000000000000000000000000000000000000000000000000000000040000000000000000000000000000020002000000000000000000000000000000000000000000000000000000000000000000000000000000000000000000000000000080000000000000000000000000000000000000000000000000000000000000000000000000000000000000000000000",
      "type": "0x2",
      "transactionHash": "0xb7b336880bf024a7c5a0e7e38059147b0a7d5b8ae8ae012fd15b6036f3f70e0d",
      "transactionIndex": "0x75",
      "blockHash": "0x260f669ff3a01fea39e4aff3c61ac5e087a7795a87ea0e179e9fc6ca33649931",
      "blockNumber": "0x87acaa",
      "gasUsed": "0xb9ca",
      "effectiveGasPrice": "0x28b02a",
      "from": "0xeade2298c7d1b5c748103da66d6dd9cf204e2ad2",
      "to": "0x57127879803e313659c1e0df410ec73ddf5a11f7",
      "contractAddress": null
    },
    {
      "status": "0x1",
      "cumulativeGasUsed": "0x1bc6668",
      "logs": [
        {
          "address": "0x57127879803e313659c1e0df410ec73ddf5a11f7",
          "topics": [
            "0xe78910fc1a08062969a9edf6b274d453a04a1734507fabbd5bb445d5cb8eaeae",
            "0x0000000000000000000000000000000000000000000000000000000000000089"
          ],
          "data": "0x0000000000000000000000000000000000000000000000000000000000000001",
          "blockHash": "0xfef5390bf9d83f55639b0d1991f6c8e71ef81abc643ec81f2e78fb90a430fc74",
          "blockNumber": "0x87acac",
          "transactionHash": "0x674e46d093d3b7f2c616156783a045458558b2b18adb2115ef2a53bffdda2728",
          "transactionIndex": "0xb6",
          "logIndex": "0x1c2",
          "removed": false
        }
      ],
      "logsBloom": "0x00000000000000000000000000000000000000000080000000000000000000000000000000000000000000000000000000000000040000000000000000000000000020000000000000000000000000000000000000000000000000000000000000000000000000800000000000000000000000000000000000000000000000000400000000000000000000000042000000000000000000000000000000002000000000000000000000000000000000000000000000000000000000000000000000000000000000000000000000000000080000000000000000000000000000000000000000000000000000000000000000000000000000000000000000000000",
      "type": "0x2",
      "transactionHash": "0x674e46d093d3b7f2c616156783a045458558b2b18adb2115ef2a53bffdda2728",
      "transactionIndex": "0xb6",
      "blockHash": "0xfef5390bf9d83f55639b0d1991f6c8e71ef81abc643ec81f2e78fb90a430fc74",
      "blockNumber": "0x87acac",
      "gasUsed": "0xb9be",
      "effectiveGasPrice": "0x263d98",
      "from": "0xeade2298c7d1b5c748103da66d6dd9cf204e2ad2",
      "to": "0x57127879803e313659c1e0df410ec73ddf5a11f7",
      "contractAddress": null
    },
    {
      "status": "0x1",
      "cumulativeGasUsed": "0xb8330f",
      "logs": [
        {
          "address": "0x57127879803e313659c1e0df410ec73ddf5a11f7",
          "topics": [
            "0xe78910fc1a08062969a9edf6b274d453a04a1734507fabbd5bb445d5cb8eaeae",
            "0x0000000000000000000000000000000000000000000000000000000000000038"
          ],
          "data": "0x0000000000000000000000000000000000000000000000000000000000000001",
          "blockHash": "0x61b20bd2340bd5e52b89f5c2b76a70b21922860643ace6a82695d19d5b21d48a",
          "blockNumber": "0x87acad",
          "transactionHash": "0xe377cc7822d9ea9df81861e8b427d8c3f3b6559c9978e370b820e943388253bc",
          "transactionIndex": "0x65",
          "logIndex": "0xba",
          "removed": false
        }
      ],
      "logsBloom": "0x00000000000000000000000000000000000000000080000000000000000000000000000000000000000020000000000000000000040000000000000000000000000020000000000000000000000000000000000000000000000000000000000000000000000000000000000000000000000000002000000000000000000000000000000000000000000000000040000000000000000000000000000000002000000000000000000000000000000000000000000000000000000000000000000000000000000000000000000000000000080000000000000000000000000000000000000000000000000000000000000000000000000000000200000000000000",
      "type": "0x2",
      "transactionHash": "0xe377cc7822d9ea9df81861e8b427d8c3f3b6559c9978e370b820e943388253bc",
      "transactionIndex": "0x65",
      "blockHash": "0x61b20bd2340bd5e52b89f5c2b76a70b21922860643ace6a82695d19d5b21d48a",
      "blockNumber": "0x87acad",
      "gasUsed": "0xb9be",
      "effectiveGasPrice": "0x283ff7",
      "from": "0xeade2298c7d1b5c748103da66d6dd9cf204e2ad2",
      "to": "0x57127879803e313659c1e0df410ec73ddf5a11f7",
      "contractAddress": null
    },
    {
      "status": "0x1",
      "cumulativeGasUsed": "0xe30b01",
      "logs": [
        {
          "address": "0x57127879803e313659c1e0df410ec73ddf5a11f7",
          "topics": [
            "0xe78910fc1a08062969a9edf6b274d453a04a1734507fabbd5bb445d5cb8eaeae",
            "0x000000000000000000000000000000000000000000000000000000000000000a"
          ],
          "data": "0x0000000000000000000000000000000000000000000000000000000000000001",
          "blockHash": "0xaaf26a1fea0ff6e795c43a526377f4a1747cb2b5a1a5f73ab76e894183025737",
          "blockNumber": "0x87acae",
          "transactionHash": "0xe65e30403df3163f8bff0c3608f4cb3e103e4b57ee8149af2f98b6e32317a9e5",
          "transactionIndex": "0x6e",
          "logIndex": "0x104",
          "removed": false
        }
      ],
      "logsBloom": "0x00000000000000000000000000000000000000000080000000000000000000000000000000000000000000000000000000000000040000000020000000000000000020000000000000000000000000000000000000000000000000000000000000000000000000000000000000000000000000000000000000000000000000000000000000000000010000000040000000000000000000000000000000002000000000000000000000000000000000000000000000000000000000000000000000000000000000000000000000000000080000000000000000000000000000000000000000000000000000000000000000000000000000000000000000000000",
      "type": "0x2",
      "transactionHash": "0xe65e30403df3163f8bff0c3608f4cb3e103e4b57ee8149af2f98b6e32317a9e5",
      "transactionIndex": "0x6e",
      "blockHash": "0xaaf26a1fea0ff6e795c43a526377f4a1747cb2b5a1a5f73ab76e894183025737",
      "blockNumber": "0x87acae",
      "gasUsed": "0xb9be",
      "effectiveGasPrice": "0x2737ad",
      "from": "0xeade2298c7d1b5c748103da66d6dd9cf204e2ad2",
      "to": "0x57127879803e313659c1e0df410ec73ddf5a11f7",
      "contractAddress": null
    },
    {
      "status": "0x1",
      "cumulativeGasUsed": "0x166735c",
      "logs": [
        {
          "address": "0x57127879803e313659c1e0df410ec73ddf5a11f7",
          "topics": [
            "0xea0e9a77bf27965d433bacf0d59e154632b791d02e56a3ab70e4803466748d87",
            "0x0000000000000000000000000000000000000000000000000000000000aa36a7",
            "0x0000000000000000000000001c7d4b196cb0c7b01d743fbc6116a902379c7238"
          ],
          "data": "0x0000000000000000000000000000000000000000000000000000000000000001",
          "blockHash": "0xc9b8737a703b96c7888ac7b0c8b3d81521581c3f61e425c14640f1e0947050d1",
          "blockNumber": "0x87acaf",
          "transactionHash": "0xb08e1584d5e90e8d117fc10c043ebe6420cbe19fdd9360dd1d81ef9edcf3267a",
          "transactionIndex": "0x88",
          "logIndex": "0x13e",
          "removed": false
        },
        {
          "address": "0x57127879803e313659c1e0df410ec73ddf5a11f7",
          "topics": [
            "0xea0e9a77bf27965d433bacf0d59e154632b791d02e56a3ab70e4803466748d87",
            "0x0000000000000000000000000000000000000000000000000000000000aa36a7",
            "0x000000000000000000000000aa8e23fb1079ea71e0a56f48a2aa51851d8433d0"
          ],
          "data": "0x0000000000000000000000000000000000000000000000000000000000000001",
          "blockHash": "0xc9b8737a703b96c7888ac7b0c8b3d81521581c3f61e425c14640f1e0947050d1",
          "blockNumber": "0x87acaf",
          "transactionHash": "0xb08e1584d5e90e8d117fc10c043ebe6420cbe19fdd9360dd1d81ef9edcf3267a",
          "transactionIndex": "0x88",
          "logIndex": "0x13f",
          "removed": false
        },
        {
          "address": "0x57127879803e313659c1e0df410ec73ddf5a11f7",
          "topics": [
            "0xea0e9a77bf27965d433bacf0d59e154632b791d02e56a3ab70e4803466748d87",
            "0x0000000000000000000000000000000000000000000000000000000000aa36a7",
            "0x0000000000000000000000007b79995e5f793a07bc00c21412e50ecae098e7f9"
          ],
          "data": "0x0000000000000000000000000000000000000000000000000000000000000001",
          "blockHash": "0xc9b8737a703b96c7888ac7b0c8b3d81521581c3f61e425c14640f1e0947050d1",
          "blockNumber": "0x87acaf",
          "transactionHash": "0xb08e1584d5e90e8d117fc10c043ebe6420cbe19fdd9360dd1d81ef9edcf3267a",
          "transactionIndex": "0x88",
          "logIndex": "0x140",
          "removed": false
        }
      ],
      "logsBloom": "0x00000000010000000000000000000000000000000000000000000000000000000000000000000002000000000000000002000000040004000000000000000000100060000000000000000040000000000000004000000000000000000000000000000000000000000000000080000000000000000000000000000000000000000000000000000000000000000000000000000000000000000000000000000000000000000000000000000000000020000000008000000000000004000200000000000000000000000000000000000000180000000000000000000000000000000000000000000000000000000000000000010000000000000000000000000000",
      "type": "0x2",
      "transactionHash": "0xb08e1584d5e90e8d117fc10c043ebe6420cbe19fdd9360dd1d81ef9edcf3267a",
      "transactionIndex": "0x88",
      "blockHash": "0xc9b8737a703b96c7888ac7b0c8b3d81521581c3f61e425c14640f1e0947050d1",
      "blockNumber": "0x87acaf",
      "gasUsed": "0x18726",
      "effectiveGasPrice": "0x267939",
      "from": "0xeade2298c7d1b5c748103da66d6dd9cf204e2ad2",
      "to": "0x57127879803e313659c1e0df410ec73ddf5a11f7",
      "contractAddress": null
    }
  ],
  "libraries": [],
  "pending": [],
  "returns": {},
  "timestamp": 1754077285,
  "chain": 11155111,
  "commit": null
}